{
  "_format": "hh-sol-artifact-1",
  "contractName": "MultisigFactory",
  "sourceName": "contracts/MultisigFactory.sol",
  "abi": [
    {
      "inputs": [
        {
          "internalType": "uint8",
          "name": "_quorum",
          "type": "uint8"
        },
        {
          "internalType": "address[]",
          "name": "_validSigners",
          "type": "address[]"
        }
      ],
      "name": "createMultisigWallet",
      "outputs": [
        {
          "internalType": "contract Multisig",
          "name": "newMulsig_",
          "type": "address"
        },
        {
          "internalType": "uint256",
          "name": "length_",
          "type": "uint256"
        }
      ],
      "stateMutability": "nonpayable",
      "type": "function"
    },
    {
      "inputs": [],
      "name": "getMultiSigClones",
      "outputs": [
        {
          "internalType": "contract Multisig[]",
          "name": "",
          "type": "address[]"
        }
      ],
      "stateMutability": "view",
      "type": "function"
    }
  ],
  "bytecode": "0x608060405234801561001057600080fd5b50612daa806100206000396000f3fe60806040523480156200001157600080fd5b50600436106200003a5760003560e01c8063109dd5e9146200003f578063b4d3a48c1462000061575b600080fd5b6200004962000098565b60405162000058919062000330565b60405180910390f35b6200007f600480360381019062000079919062000560565b62000128565b6040516200008f929190620005f2565b60405180910390f35b606060008054806020026020016040519081016040528092919081815260200182805480156200011e57602002820191906000526020600020905b8160009054906101000a900473ffffffffffffffffffffffffffffffffffffffff1673ffffffffffffffffffffffffffffffffffffffff1681526020019060010190808311620000d3575b5050505050905090565b60008083836040516200013b90620001da565b62000148929190620006ed565b604051809103906000f08015801562000165573d6000803e3d6000fd5b5091506000829080600181540180825580915050600190039060005260206000200160009091909190916101000a81548173ffffffffffffffffffffffffffffffffffffffff021916908373ffffffffffffffffffffffffffffffffffffffff16021790555060008054905090509250929050565b612653806200072283390190565b600081519050919050565b600082825260208201905092915050565b6000819050602082019050919050565b600073ffffffffffffffffffffffffffffffffffffffff82169050919050565b6000819050919050565b60006200025f62000259620002538462000214565b62000234565b62000214565b9050919050565b600062000273826200023e565b9050919050565b6000620002878262000266565b9050919050565b62000299816200027a565b82525050565b6000620002ad83836200028e565b60208301905092915050565b6000602082019050919050565b6000620002d382620001e8565b620002df8185620001f3565b9350620002ec8362000204565b8060005b83811015620003235781516200030788826200029f565b97506200031483620002b9565b925050600181019050620002f0565b5085935050505092915050565b600060208201905081810360008301526200034c8184620002c6565b905092915050565b6000604051905090565b600080fd5b600080fd5b600060ff82169050919050565b620003808162000368565b81146200038c57600080fd5b50565b600081359050620003a08162000375565b92915050565b600080fd5b6000601f19601f8301169050919050565b7f4e487b7100000000000000000000000000000000000000000000000000000000600052604160045260246000fd5b620003f682620003ab565b810181811067ffffffffffffffff82111715620004185762000417620003bc565b5b80604052505050565b60006200042d62000354565b90506200043b8282620003eb565b919050565b600067ffffffffffffffff8211156200045e576200045d620003bc565b5b602082029050602081019050919050565b600080fd5b6000620004818262000214565b9050919050565b620004938162000474565b81146200049f57600080fd5b50565b600081359050620004b38162000488565b92915050565b6000620004d0620004ca8462000440565b62000421565b90508083825260208201905060208402830185811115620004f657620004f56200046f565b5b835b818110156200052357806200050e8882620004a2565b845260208401935050602081019050620004f8565b5050509392505050565b600082601f830112620005455762000544620003a6565b5b813562000557848260208601620004b9565b91505092915050565b600080604083850312156200057a57620005796200035e565b5b60006200058a858286016200038f565b925050602083013567ffffffffffffffff811115620005ae57620005ad62000363565b5b620005bc858286016200052d565b9150509250929050565b620005d1816200027a565b82525050565b6000819050919050565b620005ec81620005d7565b82525050565b6000604082019050620006096000830185620005c6565b620006186020830184620005e1565b9392505050565b6200062a8162000368565b82525050565b600081519050919050565b6000819050602082019050919050565b620006568162000474565b82525050565b60006200066a83836200064b565b60208301905092915050565b6000602082019050919050565b6000620006908262000630565b6200069c8185620001f3565b9350620006a9836200063b565b8060005b83811015620006e0578151620006c488826200065c565b9750620006d18362000676565b925050600181019050620006ad565b5085935050505092915050565b60006040820190506200070460008301856200061f565b818103602083015262000718818462000683565b9050939250505056fe60806040523480156200001157600080fd5b50604051620026533803806200265383398181016040528101906200003791906200062c565b60018151116200007e576040517f08c379a00000000000000000000000000000000000000000000000000000000081526004016200007590620006f3565b60405180910390fd5b60018260ff1611620000c7576040517f08c379a0000000000000000000000000000000000000000000000000000000008152600401620000be9062000765565b60405180910390fd5b60005b81518110156200029357600073ffffffffffffffffffffffffffffffffffffffff1682828151811062000102576200010162000787565b5b602002602001015173ffffffffffffffffffffffffffffffffffffffff160362000163576040517f08c379a00000000000000000000000000000000000000000000000000000000081526004016200015a9062000806565b60405180910390fd5b600360008383815181106200017d576200017c62000787565b5b602002602001015173ffffffffffffffffffffffffffffffffffffffff1673ffffffffffffffffffffffffffffffffffffffff16815260200190815260200160002060009054906101000a900460ff161562000210576040517f08c379a0000000000000000000000000000000000000000000000000000000008152600401620002079062000878565b60405180910390fd5b6001600360008484815181106200022c576200022b62000787565b5b602002602001015173ffffffffffffffffffffffffffffffffffffffff1673ffffffffffffffffffffffffffffffffffffffff16815260200190815260200160002060006101000a81548160ff0219169083151502179055508080600101915050620000ca565b508051600060016101000a81548160ff021916908360ff160217905550600360003373ffffffffffffffffffffffffffffffffffffffff1673ffffffffffffffffffffffffffffffffffffffff16815260200190815260200160002060009054906101000a900460ff1662000394576001600360003373ffffffffffffffffffffffffffffffffffffffff1673ffffffffffffffffffffffffffffffffffffffff16815260200190815260200160002060006101000a81548160ff0219169083151502179055506001600060018282829054906101000a900460ff166200037b9190620008c9565b92506101000a81548160ff021916908360ff1602179055505b80518260ff161115620003de576040517f08c379a0000000000000000000000000000000000000000000000000000000008152600401620003d5906200097b565b60405180910390fd5b816000806101000a81548160ff021916908360ff16021790555050506200099d565b6000604051905090565b600080fd5b600080fd5b600060ff82169050919050565b6200042c8162000414565b81146200043857600080fd5b50565b6000815190506200044c8162000421565b92915050565b600080fd5b6000601f19601f8301169050919050565b7f4e487b7100000000000000000000000000000000000000000000000000000000600052604160045260246000fd5b620004a28262000457565b810181811067ffffffffffffffff82111715620004c457620004c362000468565b5b80604052505050565b6000620004d962000400565b9050620004e7828262000497565b919050565b600067ffffffffffffffff8211156200050a576200050962000468565b5b602082029050602081019050919050565b600080fd5b600073ffffffffffffffffffffffffffffffffffffffff82169050919050565b60006200054d8262000520565b9050919050565b6200055f8162000540565b81146200056b57600080fd5b50565b6000815190506200057f8162000554565b92915050565b60006200059c6200059684620004ec565b620004cd565b90508083825260208201905060208402830185811115620005c257620005c16200051b565b5b835b81811015620005ef5780620005da88826200056e565b845260208401935050602081019050620005c4565b5050509392505050565b600082601f83011262000611576200061062000452565b5b81516200062384826020860162000585565b91505092915050565b600080604083850312156200064657620006456200040a565b5b600062000656858286016200043b565b925050602083015167ffffffffffffffff8111156200067a57620006796200040f565b5b6200068885828601620005f9565b9150509250929050565b600082825260208201905092915050565b7f6665772076616c6964207369676e657273000000000000000000000000000000600082015250565b6000620006db60118362000692565b9150620006e882620006a3565b602082019050919050565b600060208201905081810360008301526200070e81620006cc565b9050919050565b7f71756f72756d20697320746f6f20736d616c6c00000000000000000000000000600082015250565b60006200074d60138362000692565b91506200075a8262000715565b602082019050919050565b6000602082019050818103600083015262000780816200073e565b9050919050565b7f4e487b7100000000000000000000000000000000000000000000000000000000600052603260045260246000fd5b7f7a65726f2061646472657373206e6f7420616c6c6f7765640000000000000000600082015250565b6000620007ee60188362000692565b9150620007fb82620007b6565b602082019050919050565b600060208201905081810360008301526200082181620007df565b9050919050565b7f7369676e657220616c7265616479206578697374730000000000000000000000600082015250565b60006200086060158362000692565b91506200086d8262000828565b602082019050919050565b60006020820190508181036000830152620008938162000851565b9050919050565b7f4e487b7100000000000000000000000000000000000000000000000000000000600052601160045260246000fd5b6000620008d68262000414565b9150620008e38362000414565b9250828201905060ff811115620008ff57620008fe6200089a565b5b92915050565b7f71756f72756d2067726561746572207468616e2076616c6964207369676e657260008201527f7300000000000000000000000000000000000000000000000000000000000000602082015250565b60006200096360218362000692565b9150620009708262000905565b604082019050919050565b60006020820190508181036000830152620009968162000954565b9050919050565b611ca680620009ad6000396000f3fe608060405234801561001057600080fd5b50600436106100a85760003560e01c80633d3b4a0f116100715780633d3b4a0f1461013f57806350c918211461015b5780638a8fc84d1461018b578063ccb570e3146101a9578063d40cfc51146101c5578063f53335a9146101e1576100a8565b8062f714ce146100ad5780631087393a146100c95780631703a018146100e557806317eff51b146101035780633c54068714610121575b600080fd5b6100c760048036038101906100c291906113a3565b610214565b005b6100e360048036038101906100de91906113e3565b610218565b005b6100ed61071e565b6040516100fa919061142c565b60405180910390f35b61010b61072f565b604051610118919061142c565b60405180910390f35b610129610742565b6040516101369190611456565b60405180910390f35b610159600480360381019061015491906113e3565b610748565b005b61017560048036038101906101709190611471565b610ac6565b60405161018291906114cc565b60405180910390f35b610193610af5565b6040516101a09190611456565b60405180910390f35b6101c360048036038101906101be91906114e7565b610afb565b005b6101df60048036038101906101da9190611566565b610fea565b005b6101fb60048036038101906101f691906113e3565b6112c0565b60405161020b9493929190611593565b60405180910390f35b5050565b600060046000838152602001908152602001600020905080600101548160060160009054906101000a900473ffffffffffffffffffffffffffffffffffffffff1673ffffffffffffffffffffffffffffffffffffffff166370a08231306040518263ffffffff1660e01b815260040161029191906115e7565b602060405180830381865afa1580156102ae573d6000803e3d6000fd5b505050506040513d601f19601f820116820180604052508101906102d29190611617565b1015610313576040517f08c379a000000000000000000000000000000000000000000000000000000000815260040161030a906116a1565b60405180910390fd5b600081600001540361035a576040517f08c379a00000000000000000000000000000000000000000000000000000000081526004016103519061170d565b60405180910390fd5b8060030160149054906101000a900460ff16156103ac576040517f08c379a00000000000000000000000000000000000000000000000000000000081526004016103a390611779565b60405180910390fd5b60008054906101000a900460ff1660ff16816005015410610402576040517f08c379a00000000000000000000000000000000000000000000000000000000081526004016103f9906117e5565b60405180910390fd5b600360003373ffffffffffffffffffffffffffffffffffffffff1673ffffffffffffffffffffffffffffffffffffffff16815260200190815260200160002060009054906101000a900460ff1661048e576040517f08c379a000000000000000000000000000000000000000000000000000000000815260040161048590611851565b60405180910390fd5b600660003373ffffffffffffffffffffffffffffffffffffffff1673ffffffffffffffffffffffffffffffffffffffff168152602001908152602001600020600083815260200190815260200160002060009054906101000a900460ff161561052c576040517f08c379a0000000000000000000000000000000000000000000000000000000008152600401610523906118bd565b60405180910390fd5b6001816005016000828254610541919061190c565b9250508190555080600701339080600181540180825580915050600190039060005260206000200160009091909190916101000a81548173ffffffffffffffffffffffffffffffffffffffff021916908373ffffffffffffffffffffffffffffffffffffffff1602179055506001600660003373ffffffffffffffffffffffffffffffffffffffff1673ffffffffffffffffffffffffffffffffffffffff168152602001908152602001600020600084815260200190815260200160002060006101000a81548160ff02191690831515021790555060008054906101000a900460ff1660ff1681600501540361071a5760018160030160146101000a81548160ff0219169083151502179055508060060160009054906101000a900473ffffffffffffffffffffffffffffffffffffffff1673ffffffffffffffffffffffffffffffffffffffff1663a9059cbb8260030160009054906101000a900473ffffffffffffffffffffffffffffffffffffffff1683600101546040518363ffffffff1660e01b81526004016106d5929190611940565b6020604051808303816000875af11580156106f4573d6000803e3d6000fd5b505050506040513d601f19601f820116820180604052508101906107189190611995565b505b5050565b60008054906101000a900460ff1681565b600060019054906101000a900460ff1681565b60015481565b6000600560008381526020019081526020016000209050600082036107a2576040517f08c379a00000000000000000000000000000000000000000000000000000000081526004016107999061170d565b60405180910390fd5b8060030160009054906101000a900460ff16156107f4576040517f08c379a00000000000000000000000000000000000000000000000000000000081526004016107eb90611a0e565b60405180910390fd5b60008054906101000a900460ff1660ff1681600001541061084a576040517f08c379a0000000000000000000000000000000000000000000000000000000008152600401610841906117e5565b60405180910390fd5b600360003373ffffffffffffffffffffffffffffffffffffffff1673ffffffffffffffffffffffffffffffffffffffff16815260200190815260200160002060009054906101000a900460ff166108d6576040517f08c379a00000000000000000000000000000000000000000000000000000000081526004016108cd90611851565b60405180910390fd5b600760003373ffffffffffffffffffffffffffffffffffffffff1673ffffffffffffffffffffffffffffffffffffffff168152602001908152602001600020600083815260200190815260200160002060009054906101000a900460ff1615610974576040517f08c379a000000000000000000000000000000000000000000000000000000000815260040161096b906118bd565b60405180910390fd5b6001816000016000828254610989919061190c565b9250508190555080600101339080600181540180825580915050600190039060005260206000200160009091909190916101000a81548173ffffffffffffffffffffffffffffffffffffffff021916908373ffffffffffffffffffffffffffffffffffffffff1602179055506001600760003373ffffffffffffffffffffffffffffffffffffffff1673ffffffffffffffffffffffffffffffffffffffff168152602001908152602001600020600084815260200190815260200160002060006101000a81548160ff02191690831515021790555060008054906101000a900460ff1660ff16816000015403610ac25760018160030160006101000a81548160ff0219169083151502179055508060030160019054906101000a900460ff166000806101000a81548160ff021916908360ff1602179055505b5050565b60076020528160005260406000206020528060005260406000206000915091509054906101000a900460ff1681565b60025481565b600073ffffffffffffffffffffffffffffffffffffffff163373ffffffffffffffffffffffffffffffffffffffff1603610b6a576040517f08c379a0000000000000000000000000000000000000000000000000000000008152600401610b6190611a7a565b60405180910390fd5b600360003373ffffffffffffffffffffffffffffffffffffffff1673ffffffffffffffffffffffffffffffffffffffff16815260200190815260200160002060009054906101000a900460ff16610bf6576040517f08c379a0000000000000000000000000000000000000000000000000000000008152600401610bed90611ae6565b60405180910390fd5b60008311610c39576040517f08c379a0000000000000000000000000000000000000000000000000000000008152600401610c3090611b52565b60405180910390fd5b600073ffffffffffffffffffffffffffffffffffffffff168273ffffffffffffffffffffffffffffffffffffffff1603610ca8576040517f08c379a0000000000000000000000000000000000000000000000000000000008152600401610c9f90611a7a565b60405180910390fd5b600073ffffffffffffffffffffffffffffffffffffffff168173ffffffffffffffffffffffffffffffffffffffff1603610d17576040517f08c379a0000000000000000000000000000000000000000000000000000000008152600401610d0e90611a7a565b60405180910390fd5b828173ffffffffffffffffffffffffffffffffffffffff166370a08231306040518263ffffffff1660e01b8152600401610d5191906115e7565b602060405180830381865afa158015610d6e573d6000803e3d6000fd5b505050506040513d601f19601f82011682018060405250810190610d929190611617565b1015610dd3576040517f08c379a0000000000000000000000000000000000000000000000000000000008152600401610dca906116a1565b60405180910390fd5b600060018054610de3919061190c565b90506000600460008381526020019081526020016000209050818160000181905550848160010181905550838160030160006101000a81548173ffffffffffffffffffffffffffffffffffffffff021916908373ffffffffffffffffffffffffffffffffffffffff160217905550338160020160006101000a81548173ffffffffffffffffffffffffffffffffffffffff021916908373ffffffffffffffffffffffffffffffffffffffff160217905550428160040181905550828160060160006101000a81548173ffffffffffffffffffffffffffffffffffffffff021916908373ffffffffffffffffffffffffffffffffffffffff1602179055506001816005016000828254610ef5919061190c565b9250508190555080600701339080600181540180825580915050600190039060005260206000200160009091909190916101000a81548173ffffffffffffffffffffffffffffffffffffffff021916908373ffffffffffffffffffffffffffffffffffffffff1602179055506001600660003373ffffffffffffffffffffffffffffffffffffffff1673ffffffffffffffffffffffffffffffffffffffff168152602001908152602001600020600084815260200190815260200160002060006101000a81548160ff0219169083151502179055506001806000828254610fdc919061190c565b925050819055505050505050565b60018160ff1611611030576040517f08c379a000000000000000000000000000000000000000000000000000000000815260040161102790611bbe565b60405180910390fd5b600060019054906101000a900460ff1660ff168160ff161115611088576040517f08c379a000000000000000000000000000000000000000000000000000000000815260040161107f90611c50565b60405180910390fd5b600073ffffffffffffffffffffffffffffffffffffffff163373ffffffffffffffffffffffffffffffffffffffff16036110f7576040517f08c379a00000000000000000000000000000000000000000000000000000000081526004016110ee90611a7a565b60405180910390fd5b600360003373ffffffffffffffffffffffffffffffffffffffff1673ffffffffffffffffffffffffffffffffffffffff16815260200190815260200160002060009054906101000a900460ff16611183576040517f08c379a000000000000000000000000000000000000000000000000000000000815260040161117a90611ae6565b60405180910390fd5b60006001600254611194919061190c565b9050600060056000838152602001908152602001600020905080600101339080600181540180825580915050600190039060005260206000200160009091909190916101000a81548173ffffffffffffffffffffffffffffffffffffffff021916908373ffffffffffffffffffffffffffffffffffffffff160217905550428160020181905550828160030160016101000a81548160ff021916908360ff1602179055506001600760003373ffffffffffffffffffffffffffffffffffffffff1673ffffffffffffffffffffffffffffffffffffffff168152602001908152602001600020600084815260200190815260200160002060006101000a81548160ff0219169083151502179055506001600260008282546112b4919061190c565b92505081905550505050565b60056020528060005260406000206000915090508060000154908060020154908060030160009054906101000a900460ff16908060030160019054906101000a900460ff16905084565b600080fd5b6000819050919050565b6113228161130f565b811461132d57600080fd5b50565b60008135905061133f81611319565b92915050565b600073ffffffffffffffffffffffffffffffffffffffff82169050919050565b600061137082611345565b9050919050565b61138081611365565b811461138b57600080fd5b50565b60008135905061139d81611377565b92915050565b600080604083850312156113ba576113b961130a565b5b60006113c885828601611330565b92505060206113d98582860161138e565b9150509250929050565b6000602082840312156113f9576113f861130a565b5b600061140784828501611330565b91505092915050565b600060ff82169050919050565b61142681611410565b82525050565b6000602082019050611441600083018461141d565b92915050565b6114508161130f565b82525050565b600060208201905061146b6000830184611447565b92915050565b600080604083850312156114885761148761130a565b5b60006114968582860161138e565b92505060206114a785828601611330565b9150509250929050565b60008115159050919050565b6114c6816114b1565b82525050565b60006020820190506114e160008301846114bd565b92915050565b600080600060608486031215611500576114ff61130a565b5b600061150e86828701611330565b935050602061151f8682870161138e565b92505060406115308682870161138e565b9150509250925092565b61154381611410565b811461154e57600080fd5b50565b6000813590506115608161153a565b92915050565b60006020828403121561157c5761157b61130a565b5b600061158a84828501611551565b91505092915050565b60006080820190506115a86000830187611447565b6115b56020830186611447565b6115c260408301856114bd565b6115cf606083018461141d565b95945050505050565b6115e181611365565b82525050565b60006020820190506115fc60008301846115d8565b92915050565b60008151905061161181611319565b92915050565b60006020828403121561162d5761162c61130a565b5b600061163b84828501611602565b91505092915050565b600082825260208201905092915050565b7f696e73756666696369656e742066756e64730000000000000000000000000000600082015250565b600061168b601283611644565b915061169682611655565b602082019050919050565b600060208201905081810360008301526116ba8161167e565b9050919050565b7f496e76616c696420747820696400000000000000000000000000000000000000600082015250565b60006116f7600d83611644565b9150611702826116c1565b602082019050919050565b60006020820190508181036000830152611726816116ea565b9050919050565b7f7472616e73616374696f6e20616c726561647920636f6d706c65746564000000600082015250565b6000611763601d83611644565b915061176e8261172d565b602082019050919050565b6000602082019050818103600083015261179281611756565b9050919050565b7f617070726f76616c7320616c7265616479207265616368656400000000000000600082015250565b60006117cf601983611644565b91506117da82611799565b602082019050919050565b600060208201905081810360008301526117fe816117c2565b9050919050565b7f6e6f7420612076616c6964207369676e65720000000000000000000000000000600082015250565b600061183b601283611644565b915061184682611805565b602082019050919050565b6000602082019050818103600083015261186a8161182e565b9050919050565b7f63616e2774207369676e20747769636500000000000000000000000000000000600082015250565b60006118a7601083611644565b91506118b282611871565b602082019050919050565b600060208201905081810360008301526118d68161189a565b9050919050565b7f4e487b7100000000000000000000000000000000000000000000000000000000600052601160045260246000fd5b60006119178261130f565b91506119228361130f565b925082820190508082111561193a576119396118dd565b5b92915050565b600060408201905061195560008301856115d8565b6119626020830184611447565b9392505050565b611972816114b1565b811461197d57600080fd5b50565b60008151905061198f81611969565b92915050565b6000602082840312156119ab576119aa61130a565b5b60006119b984828501611980565b91505092915050565b7f7472616e73616374696f6e20616c726561647920617070726f76656400000000600082015250565b60006119f8601c83611644565b9150611a03826119c2565b602082019050919050565b60006020820190508181036000830152611a27816119eb565b9050919050565b7f61646472657373207a65726f20666f756e640000000000000000000000000000600082015250565b6000611a64601283611644565b9150611a6f82611a2e565b602082019050919050565b60006020820190508181036000830152611a9381611a57565b9050919050565b7f696e76616c6964207369676e6572000000000000000000000000000000000000600082015250565b6000611ad0600e83611644565b9150611adb82611a9a565b602082019050919050565b60006020820190508181036000830152611aff81611ac3565b9050919050565b7f63616e27742073656e64207a65726f20616d6f756e7400000000000000000000600082015250565b6000611b3c601683611644565b9150611b4782611b06565b602082019050919050565b60006020820190508181036000830152611b6b81611b2f565b9050919050565b7f71756f72756d20697320746f6f20736d616c6c00000000000000000000000000600082015250565b6000611ba8601383611644565b9150611bb382611b72565b602082019050919050565b60006020820190508181036000830152611bd781611b9b565b9050919050565b7f71756f72756d2067726561746572207468616e2076616c6964207369676e657260008201527f7300000000000000000000000000000000000000000000000000000000000000602082015250565b6000611c3a602183611644565b9150611c4582611bde565b604082019050919050565b60006020820190508181036000830152611c6981611c2d565b905091905056fea26469706673582212207a6fcfb2be100f081cc63df1e8e3fe9cf0bca316fc100a78e04c1d0d70f877cb64736f6c63430008180033a26469706673582212200182773c405d87a5ded2ec9f9a3f0836141ef8d6e397ace73020a6f4bec471da64736f6c63430008180033",
  "linkReferences": {},
  "deployedLinkReferences": {}
}