{
  "_format": "hh-sol-artifact-1",
  "contractName": "Multisig",
  "sourceName": "contracts/Multisig.sol",
  "abi": [
    {
      "inputs": [
        {
          "internalType": "uint8",
          "name": "_quorum",
          "type": "uint8"
        },
        {
          "internalType": "address[]",
          "name": "_validSigners",
          "type": "address[]"
        }
      ],
      "stateMutability": "nonpayable",
      "type": "constructor"
    },
    {
      "inputs": [
        {
          "internalType": "uint256",
          "name": "_txId",
          "type": "uint256"
        }
      ],
      "name": "approveTx",
      "outputs": [],
      "stateMutability": "nonpayable",
      "type": "function"
    },
    {
      "inputs": [
        {
          "internalType": "uint256",
          "name": "_qTxId",
          "type": "uint256"
        }
      ],
      "name": "approveUpdateTx",
      "outputs": [],
      "stateMutability": "nonpayable",
      "type": "function"
    },
    {
      "inputs": [
        {
          "internalType": "address",
          "name": "",
          "type": "address"
        },
        {
          "internalType": "uint256",
          "name": "",
          "type": "uint256"
        }
      ],
      "name": "hasSigned",
      "outputs": [
        {
          "internalType": "bool",
          "name": "",
          "type": "bool"
        }
      ],
      "stateMutability": "view",
      "type": "function"
    },
    {
      "inputs": [
        {
          "internalType": "address",
          "name": "",
          "type": "address"
        },
        {
          "internalType": "uint256",
          "name": "",
          "type": "uint256"
        }
      ],
      "name": "hasSignedQuorumUpdate",
      "outputs": [
        {
          "internalType": "bool",
          "name": "",
          "type": "bool"
        }
      ],
      "stateMutability": "view",
      "type": "function"
    },
    {
      "inputs": [],
      "name": "noOfValidSigners",
      "outputs": [
        {
          "internalType": "uint8",
          "name": "",
          "type": "uint8"
        }
      ],
      "stateMutability": "view",
      "type": "function"
    },
    {
      "inputs": [],
      "name": "qTxCount",
      "outputs": [
        {
          "internalType": "uint256",
          "name": "",
          "type": "uint256"
        }
      ],
      "stateMutability": "view",
      "type": "function"
    },
    {
      "inputs": [],
      "name": "quorum",
      "outputs": [
        {
          "internalType": "uint8",
          "name": "",
          "type": "uint8"
        }
      ],
      "stateMutability": "view",
      "type": "function"
    },
    {
      "inputs": [
        {
          "internalType": "uint256",
          "name": "",
          "type": "uint256"
        }
      ],
      "name": "quorumTransactions",
      "outputs": [
        {
          "internalType": "uint256",
          "name": "noOfApproval",
          "type": "uint256"
        },
        {
          "internalType": "uint256",
          "name": "timestamp",
          "type": "uint256"
        },
        {
          "internalType": "bool",
          "name": "isApproved",
          "type": "bool"
        },
        {
          "internalType": "uint8",
          "name": "newQuorum",
          "type": "uint8"
        }
      ],
      "stateMutability": "view",
      "type": "function"
    },
    {
      "inputs": [
        {
          "internalType": "uint256",
          "name": "",
          "type": "uint256"
        }
      ],
      "name": "transactions",
      "outputs": [
        {
          "internalType": "uint256",
          "name": "id",
          "type": "uint256"
        },
        {
          "internalType": "uint256",
          "name": "amount",
          "type": "uint256"
        },
        {
          "internalType": "address",
          "name": "sender",
          "type": "address"
        },
        {
          "internalType": "address",
          "name": "recipient",
          "type": "address"
        },
        {
          "internalType": "bool",
          "name": "isCompleted",
          "type": "bool"
        },
        {
          "internalType": "uint256",
          "name": "timestamp",
          "type": "uint256"
        },
        {
          "internalType": "uint256",
          "name": "noOfApproval",
          "type": "uint256"
        },
        {
          "internalType": "address",
          "name": "tokenAddress",
          "type": "address"
        }
      ],
      "stateMutability": "view",
      "type": "function"
    },
    {
      "inputs": [
        {
          "internalType": "uint256",
          "name": "_amount",
          "type": "uint256"
        },
        {
          "internalType": "address",
          "name": "_recipient",
          "type": "address"
        },
        {
          "internalType": "address",
          "name": "_tokenAddress",
          "type": "address"
        }
      ],
      "name": "transfer",
      "outputs": [],
      "stateMutability": "nonpayable",
      "type": "function"
    },
    {
      "inputs": [],
      "name": "txCount",
      "outputs": [
        {
          "internalType": "uint256",
          "name": "",
          "type": "uint256"
        }
      ],
      "stateMutability": "view",
      "type": "function"
    },
    {
      "inputs": [
        {
          "internalType": "uint8",
          "name": "_newQuorum",
          "type": "uint8"
        }
      ],
      "name": "updateQuorum",
      "outputs": [],
      "stateMutability": "nonpayable",
      "type": "function"
    },
    {
      "inputs": [
        {
          "internalType": "uint256",
          "name": "_amount",
          "type": "uint256"
        },
        {
          "internalType": "address",
          "name": "_tokenAddress",
          "type": "address"
        }
      ],
      "name": "withdraw",
      "outputs": [],
      "stateMutability": "nonpayable",
      "type": "function"
    }
  ],
  "bytecode": "0x60806040523480156200001157600080fd5b50604051620028423803806200284283398181016040528101906200003791906200062c565b60018151116200007e576040517f08c379a00000000000000000000000000000000000000000000000000000000081526004016200007590620006f3565b60405180910390fd5b60018260ff1611620000c7576040517f08c379a0000000000000000000000000000000000000000000000000000000008152600401620000be9062000765565b60405180910390fd5b60005b81518110156200029357600073ffffffffffffffffffffffffffffffffffffffff1682828151811062000102576200010162000787565b5b602002602001015173ffffffffffffffffffffffffffffffffffffffff160362000163576040517f08c379a00000000000000000000000000000000000000000000000000000000081526004016200015a9062000806565b60405180910390fd5b600360008383815181106200017d576200017c62000787565b5b602002602001015173ffffffffffffffffffffffffffffffffffffffff1673ffffffffffffffffffffffffffffffffffffffff16815260200190815260200160002060009054906101000a900460ff161562000210576040517f08c379a0000000000000000000000000000000000000000000000000000000008152600401620002079062000878565b60405180910390fd5b6001600360008484815181106200022c576200022b62000787565b5b602002602001015173ffffffffffffffffffffffffffffffffffffffff1673ffffffffffffffffffffffffffffffffffffffff16815260200190815260200160002060006101000a81548160ff0219169083151502179055508080600101915050620000ca565b508051600060016101000a81548160ff021916908360ff160217905550600360003373ffffffffffffffffffffffffffffffffffffffff1673ffffffffffffffffffffffffffffffffffffffff16815260200190815260200160002060009054906101000a900460ff1662000394576001600360003373ffffffffffffffffffffffffffffffffffffffff1673ffffffffffffffffffffffffffffffffffffffff16815260200190815260200160002060006101000a81548160ff0219169083151502179055506001600060018282829054906101000a900460ff166200037b9190620008c9565b92506101000a81548160ff021916908360ff1602179055505b80518260ff161115620003de576040517f08c379a0000000000000000000000000000000000000000000000000000000008152600401620003d5906200097b565b60405180910390fd5b816000806101000a81548160ff021916908360ff16021790555050506200099d565b6000604051905090565b600080fd5b600080fd5b600060ff82169050919050565b6200042c8162000414565b81146200043857600080fd5b50565b6000815190506200044c8162000421565b92915050565b600080fd5b6000601f19601f8301169050919050565b7f4e487b7100000000000000000000000000000000000000000000000000000000600052604160045260246000fd5b620004a28262000457565b810181811067ffffffffffffffff82111715620004c457620004c362000468565b5b80604052505050565b6000620004d962000400565b9050620004e7828262000497565b919050565b600067ffffffffffffffff8211156200050a576200050962000468565b5b602082029050602081019050919050565b600080fd5b600073ffffffffffffffffffffffffffffffffffffffff82169050919050565b60006200054d8262000520565b9050919050565b6200055f8162000540565b81146200056b57600080fd5b50565b6000815190506200057f8162000554565b92915050565b60006200059c6200059684620004ec565b620004cd565b90508083825260208201905060208402830185811115620005c257620005c16200051b565b5b835b81811015620005ef5780620005da88826200056e565b845260208401935050602081019050620005c4565b5050509392505050565b600082601f83011262000611576200061062000452565b5b81516200062384826020860162000585565b91505092915050565b600080604083850312156200064657620006456200040a565b5b600062000656858286016200043b565b925050602083015167ffffffffffffffff8111156200067a57620006796200040f565b5b6200068885828601620005f9565b9150509250929050565b600082825260208201905092915050565b7f6665772076616c6964207369676e657273000000000000000000000000000000600082015250565b6000620006db60118362000692565b9150620006e882620006a3565b602082019050919050565b600060208201905081810360008301526200070e81620006cc565b9050919050565b7f71756f72756d20697320746f6f20736d616c6c00000000000000000000000000600082015250565b60006200074d60138362000692565b91506200075a8262000715565b602082019050919050565b6000602082019050818103600083015262000780816200073e565b9050919050565b7f4e487b7100000000000000000000000000000000000000000000000000000000600052603260045260246000fd5b7f7a65726f2061646472657373206e6f7420616c6c6f7765640000000000000000600082015250565b6000620007ee60188362000692565b9150620007fb82620007b6565b602082019050919050565b600060208201905081810360008301526200082181620007df565b9050919050565b7f7369676e657220616c7265616479206578697374730000000000000000000000600082015250565b60006200086060158362000692565b91506200086d8262000828565b602082019050919050565b60006020820190508181036000830152620008938162000851565b9050919050565b7f4e487b7100000000000000000000000000000000000000000000000000000000600052601160045260246000fd5b6000620008d68262000414565b9150620008e38362000414565b9250828201905060ff811115620008ff57620008fe6200089a565b5b92915050565b7f71756f72756d2067726561746572207468616e2076616c6964207369676e657260008201527f7300000000000000000000000000000000000000000000000000000000000000602082015250565b60006200096360218362000692565b9150620009708262000905565b604082019050919050565b60006020820190508181036000830152620009968162000954565b9050919050565b611e9580620009ad6000396000f3fe608060405234801561001057600080fd5b50600436106100ce5760003560e01c806350c918211161008c5780639ace38c2116100665780639ace38c2146101ff578063ccb570e314610236578063d40cfc5114610252578063f53335a91461026e576100ce565b806350c91821146101815780635952dd90146101b15780638a8fc84d146101e1576100ce565b8062f714ce146100d35780631087393a146100ef5780631703a0181461010b57806317eff51b146101295780633c540687146101475780633d3b4a0f14610165575b600080fd5b6100ed60048036038101906100e89190611514565b6102a1565b005b61010960048036038101906101049190611554565b6102a5565b005b6101136107ab565b604051610120919061159d565b60405180910390f35b6101316107bc565b60405161013e919061159d565b60405180910390f35b61014f6107cf565b60405161015c91906115c7565b60405180910390f35b61017f600480360381019061017a9190611554565b6107d5565b005b61019b600480360381019061019691906115e2565b610b53565b6040516101a8919061163d565b60405180910390f35b6101cb60048036038101906101c691906115e2565b610b82565b6040516101d8919061163d565b60405180910390f35b6101e9610bb1565b6040516101f691906115c7565b60405180910390f35b61021960048036038101906102149190611554565b610bb7565b60405161022d989796959493929190611667565b60405180910390f35b610250600480360381019061024b91906116e5565b610c6c565b005b61026c60048036038101906102679190611764565b61115b565b005b61028860048036038101906102839190611554565b611431565b6040516102989493929190611791565b60405180910390f35b5050565b600060046000838152602001908152602001600020905080600101548160060160009054906101000a900473ffffffffffffffffffffffffffffffffffffffff1673ffffffffffffffffffffffffffffffffffffffff166370a08231306040518263ffffffff1660e01b815260040161031e91906117d6565b602060405180830381865afa15801561033b573d6000803e3d6000fd5b505050506040513d601f19601f8201168201806040525081019061035f9190611806565b10156103a0576040517f08c379a000000000000000000000000000000000000000000000000000000000815260040161039790611890565b60405180910390fd5b60008160000154036103e7576040517f08c379a00000000000000000000000000000000000000000000000000000000081526004016103de906118fc565b60405180910390fd5b8060030160149054906101000a900460ff1615610439576040517f08c379a000000000000000000000000000000000000000000000000000000000815260040161043090611968565b60405180910390fd5b60008054906101000a900460ff1660ff1681600501541061048f576040517f08c379a0000000000000000000000000000000000000000000000000000000008152600401610486906119d4565b60405180910390fd5b600360003373ffffffffffffffffffffffffffffffffffffffff1673ffffffffffffffffffffffffffffffffffffffff16815260200190815260200160002060009054906101000a900460ff1661051b576040517f08c379a000000000000000000000000000000000000000000000000000000000815260040161051290611a40565b60405180910390fd5b600660003373ffffffffffffffffffffffffffffffffffffffff1673ffffffffffffffffffffffffffffffffffffffff168152602001908152602001600020600083815260200190815260200160002060009054906101000a900460ff16156105b9576040517f08c379a00000000000000000000000000000000000000000000000000000000081526004016105b090611aac565b60405180910390fd5b60018160050160008282546105ce9190611afb565b9250508190555080600701339080600181540180825580915050600190039060005260206000200160009091909190916101000a81548173ffffffffffffffffffffffffffffffffffffffff021916908373ffffffffffffffffffffffffffffffffffffffff1602179055506001600660003373ffffffffffffffffffffffffffffffffffffffff1673ffffffffffffffffffffffffffffffffffffffff168152602001908152602001600020600084815260200190815260200160002060006101000a81548160ff02191690831515021790555060008054906101000a900460ff1660ff168160050154036107a75760018160030160146101000a81548160ff0219169083151502179055508060060160009054906101000a900473ffffffffffffffffffffffffffffffffffffffff1673ffffffffffffffffffffffffffffffffffffffff1663a9059cbb8260030160009054906101000a900473ffffffffffffffffffffffffffffffffffffffff1683600101546040518363ffffffff1660e01b8152600401610762929190611b2f565b6020604051808303816000875af1158015610781573d6000803e3d6000fd5b505050506040513d601f19601f820116820180604052508101906107a59190611b84565b505b5050565b60008054906101000a900460ff1681565b600060019054906101000a900460ff1681565b60015481565b60006005600083815260200190815260200160002090506000820361082f576040517f08c379a0000000000000000000000000000000000000000000000000000000008152600401610826906118fc565b60405180910390fd5b8060030160009054906101000a900460ff1615610881576040517f08c379a000000000000000000000000000000000000000000000000000000000815260040161087890611bfd565b60405180910390fd5b60008054906101000a900460ff1660ff168160000154106108d7576040517f08c379a00000000000000000000000000000000000000000000000000000000081526004016108ce906119d4565b60405180910390fd5b600360003373ffffffffffffffffffffffffffffffffffffffff1673ffffffffffffffffffffffffffffffffffffffff16815260200190815260200160002060009054906101000a900460ff16610963576040517f08c379a000000000000000000000000000000000000000000000000000000000815260040161095a90611a40565b60405180910390fd5b600760003373ffffffffffffffffffffffffffffffffffffffff1673ffffffffffffffffffffffffffffffffffffffff168152602001908152602001600020600083815260200190815260200160002060009054906101000a900460ff1615610a01576040517f08c379a00000000000000000000000000000000000000000000000000000000081526004016109f890611aac565b60405180910390fd5b6001816000016000828254610a169190611afb565b9250508190555080600101339080600181540180825580915050600190039060005260206000200160009091909190916101000a81548173ffffffffffffffffffffffffffffffffffffffff021916908373ffffffffffffffffffffffffffffffffffffffff1602179055506001600760003373ffffffffffffffffffffffffffffffffffffffff1673ffffffffffffffffffffffffffffffffffffffff168152602001908152602001600020600084815260200190815260200160002060006101000a81548160ff02191690831515021790555060008054906101000a900460ff1660ff16816000015403610b4f5760018160030160006101000a81548160ff0219169083151502179055508060030160019054906101000a900460ff166000806101000a81548160ff021916908360ff1602179055505b5050565b60076020528160005260406000206020528060005260406000206000915091509054906101000a900460ff1681565b60066020528160005260406000206020528060005260406000206000915091509054906101000a900460ff1681565b60025481565b60046020528060005260406000206000915090508060000154908060010154908060020160009054906101000a900473ffffffffffffffffffffffffffffffffffffffff16908060030160009054906101000a900473ffffffffffffffffffffffffffffffffffffffff16908060030160149054906101000a900460ff16908060040154908060050154908060060160009054906101000a900473ffffffffffffffffffffffffffffffffffffffff16905088565b600073ffffffffffffffffffffffffffffffffffffffff163373ffffffffffffffffffffffffffffffffffffffff1603610cdb576040517f08c379a0000000000000000000000000000000000000000000000000000000008152600401610cd290611c69565b60405180910390fd5b600360003373ffffffffffffffffffffffffffffffffffffffff1673ffffffffffffffffffffffffffffffffffffffff16815260200190815260200160002060009054906101000a900460ff16610d67576040517f08c379a0000000000000000000000000000000000000000000000000000000008152600401610d5e90611cd5565b60405180910390fd5b60008311610daa576040517f08c379a0000000000000000000000000000000000000000000000000000000008152600401610da190611d41565b60405180910390fd5b600073ffffffffffffffffffffffffffffffffffffffff168273ffffffffffffffffffffffffffffffffffffffff1603610e19576040517f08c379a0000000000000000000000000000000000000000000000000000000008152600401610e1090611c69565b60405180910390fd5b600073ffffffffffffffffffffffffffffffffffffffff168173ffffffffffffffffffffffffffffffffffffffff1603610e88576040517f08c379a0000000000000000000000000000000000000000000000000000000008152600401610e7f90611c69565b60405180910390fd5b828173ffffffffffffffffffffffffffffffffffffffff166370a08231306040518263ffffffff1660e01b8152600401610ec291906117d6565b602060405180830381865afa158015610edf573d6000803e3d6000fd5b505050506040513d601f19601f82011682018060405250810190610f039190611806565b1015610f44576040517f08c379a0000000000000000000000000000000000000000000000000000000008152600401610f3b90611890565b60405180910390fd5b600060018054610f549190611afb565b90506000600460008381526020019081526020016000209050818160000181905550848160010181905550838160030160006101000a81548173ffffffffffffffffffffffffffffffffffffffff021916908373ffffffffffffffffffffffffffffffffffffffff160217905550338160020160006101000a81548173ffffffffffffffffffffffffffffffffffffffff021916908373ffffffffffffffffffffffffffffffffffffffff160217905550428160040181905550828160060160006101000a81548173ffffffffffffffffffffffffffffffffffffffff021916908373ffffffffffffffffffffffffffffffffffffffff16021790555060018160050160008282546110669190611afb565b9250508190555080600701339080600181540180825580915050600190039060005260206000200160009091909190916101000a81548173ffffffffffffffffffffffffffffffffffffffff021916908373ffffffffffffffffffffffffffffffffffffffff1602179055506001600660003373ffffffffffffffffffffffffffffffffffffffff1673ffffffffffffffffffffffffffffffffffffffff168152602001908152602001600020600084815260200190815260200160002060006101000a81548160ff021916908315150217905550600180600082825461114d9190611afb565b925050819055505050505050565b60018160ff16116111a1576040517f08c379a000000000000000000000000000000000000000000000000000000000815260040161119890611dad565b60405180910390fd5b600060019054906101000a900460ff1660ff168160ff1611156111f9576040517f08c379a00000000000000000000000000000000000000000000000000000000081526004016111f090611e3f565b60405180910390fd5b600073ffffffffffffffffffffffffffffffffffffffff163373ffffffffffffffffffffffffffffffffffffffff1603611268576040517f08c379a000000000000000000000000000000000000000000000000000000000815260040161125f90611c69565b60405180910390fd5b600360003373ffffffffffffffffffffffffffffffffffffffff1673ffffffffffffffffffffffffffffffffffffffff16815260200190815260200160002060009054906101000a900460ff166112f4576040517f08c379a00000000000000000000000000000000000000000000000000000000081526004016112eb90611cd5565b60405180910390fd5b600060016002546113059190611afb565b9050600060056000838152602001908152602001600020905080600101339080600181540180825580915050600190039060005260206000200160009091909190916101000a81548173ffffffffffffffffffffffffffffffffffffffff021916908373ffffffffffffffffffffffffffffffffffffffff160217905550428160020181905550828160030160016101000a81548160ff021916908360ff1602179055506001600760003373ffffffffffffffffffffffffffffffffffffffff1673ffffffffffffffffffffffffffffffffffffffff168152602001908152602001600020600084815260200190815260200160002060006101000a81548160ff0219169083151502179055506001600260008282546114259190611afb565b92505081905550505050565b60056020528060005260406000206000915090508060000154908060020154908060030160009054906101000a900460ff16908060030160019054906101000a900460ff16905084565b600080fd5b6000819050919050565b61149381611480565b811461149e57600080fd5b50565b6000813590506114b08161148a565b92915050565b600073ffffffffffffffffffffffffffffffffffffffff82169050919050565b60006114e1826114b6565b9050919050565b6114f1816114d6565b81146114fc57600080fd5b50565b60008135905061150e816114e8565b92915050565b6000806040838503121561152b5761152a61147b565b5b6000611539858286016114a1565b925050602061154a858286016114ff565b9150509250929050565b60006020828403121561156a5761156961147b565b5b6000611578848285016114a1565b91505092915050565b600060ff82169050919050565b61159781611581565b82525050565b60006020820190506115b2600083018461158e565b92915050565b6115c181611480565b82525050565b60006020820190506115dc60008301846115b8565b92915050565b600080604083850312156115f9576115f861147b565b5b6000611607858286016114ff565b9250506020611618858286016114a1565b9150509250929050565b60008115159050919050565b61163781611622565b82525050565b6000602082019050611652600083018461162e565b92915050565b611661816114d6565b82525050565b60006101008201905061167d600083018b6115b8565b61168a602083018a6115b8565b6116976040830189611658565b6116a46060830188611658565b6116b1608083018761162e565b6116be60a08301866115b8565b6116cb60c08301856115b8565b6116d860e0830184611658565b9998505050505050505050565b6000806000606084860312156116fe576116fd61147b565b5b600061170c868287016114a1565b935050602061171d868287016114ff565b925050604061172e868287016114ff565b9150509250925092565b61174181611581565b811461174c57600080fd5b50565b60008135905061175e81611738565b92915050565b60006020828403121561177a5761177961147b565b5b60006117888482850161174f565b91505092915050565b60006080820190506117a660008301876115b8565b6117b360208301866115b8565b6117c0604083018561162e565b6117cd606083018461158e565b95945050505050565b60006020820190506117eb6000830184611658565b92915050565b6000815190506118008161148a565b92915050565b60006020828403121561181c5761181b61147b565b5b600061182a848285016117f1565b91505092915050565b600082825260208201905092915050565b7f696e73756666696369656e742066756e64730000000000000000000000000000600082015250565b600061187a601283611833565b915061188582611844565b602082019050919050565b600060208201905081810360008301526118a98161186d565b9050919050565b7f496e76616c696420747820696400000000000000000000000000000000000000600082015250565b60006118e6600d83611833565b91506118f1826118b0565b602082019050919050565b60006020820190508181036000830152611915816118d9565b9050919050565b7f7472616e73616374696f6e20616c726561647920636f6d706c65746564000000600082015250565b6000611952601d83611833565b915061195d8261191c565b602082019050919050565b6000602082019050818103600083015261198181611945565b9050919050565b7f617070726f76616c7320616c7265616479207265616368656400000000000000600082015250565b60006119be601983611833565b91506119c982611988565b602082019050919050565b600060208201905081810360008301526119ed816119b1565b9050919050565b7f6e6f7420612076616c6964207369676e65720000000000000000000000000000600082015250565b6000611a2a601283611833565b9150611a35826119f4565b602082019050919050565b60006020820190508181036000830152611a5981611a1d565b9050919050565b7f63616e2774207369676e20747769636500000000000000000000000000000000600082015250565b6000611a96601083611833565b9150611aa182611a60565b602082019050919050565b60006020820190508181036000830152611ac581611a89565b9050919050565b7f4e487b7100000000000000000000000000000000000000000000000000000000600052601160045260246000fd5b6000611b0682611480565b9150611b1183611480565b9250828201905080821115611b2957611b28611acc565b5b92915050565b6000604082019050611b446000830185611658565b611b5160208301846115b8565b9392505050565b611b6181611622565b8114611b6c57600080fd5b50565b600081519050611b7e81611b58565b92915050565b600060208284031215611b9a57611b9961147b565b5b6000611ba884828501611b6f565b91505092915050565b7f7472616e73616374696f6e20616c726561647920617070726f76656400000000600082015250565b6000611be7601c83611833565b9150611bf282611bb1565b602082019050919050565b60006020820190508181036000830152611c1681611bda565b9050919050565b7f61646472657373207a65726f20666f756e640000000000000000000000000000600082015250565b6000611c53601283611833565b9150611c5e82611c1d565b602082019050919050565b60006020820190508181036000830152611c8281611c46565b9050919050565b7f696e76616c6964207369676e6572000000000000000000000000000000000000600082015250565b6000611cbf600e83611833565b9150611cca82611c89565b602082019050919050565b60006020820190508181036000830152611cee81611cb2565b9050919050565b7f63616e27742073656e64207a65726f20616d6f756e7400000000000000000000600082015250565b6000611d2b601683611833565b9150611d3682611cf5565b602082019050919050565b60006020820190508181036000830152611d5a81611d1e565b9050919050565b7f71756f72756d20697320746f6f20736d616c6c00000000000000000000000000600082015250565b6000611d97601383611833565b9150611da282611d61565b602082019050919050565b60006020820190508181036000830152611dc681611d8a565b9050919050565b7f71756f72756d2067726561746572207468616e2076616c6964207369676e657260008201527f7300000000000000000000000000000000000000000000000000000000000000602082015250565b6000611e29602183611833565b9150611e3482611dcd565b604082019050919050565b60006020820190508181036000830152611e5881611e1c565b905091905056fea2646970667358221220143089788913dd4f962e8e0daa7b8cbf5999f753b6152966954a7149601ea90664736f6c63430008180033",
  "linkReferences": {},
  "deployedLinkReferences": {}
}